{
  "contractName": "Employe",
  "abi": [
    {
      "inputs": [
        {
          "internalType": "string",
          "name": "_latitude",
          "type": "string"
        },
        {
          "internalType": "string",
          "name": "_longitude",
          "type": "string"
        }
      ],
      "name": "sendlocation",
      "outputs": [],
      "stateMutability": "nonpayable",
      "type": "function"
    },
    {
      "inputs": [],
      "name": "readlocation",
      "outputs": [
        {
          "internalType": "string",
          "name": "",
          "type": "string"
        },
        {
          "internalType": "string",
          "name": "",
          "type": "string"
        }
      ],
      "stateMutability": "view",
      "type": "function"
    }
  ],
  "bytecode": "0x608060405260405180604001604052806040518060400160405280600481526020017f302e30300000000000000000000000000000000000000000000000000000000081525081526020016040518060400160405280600481526020017f302e303000000000000000000000000000000000000000000000000000000000815250815250600090600262000095929190620000aa565b50348015620000a357600080fd5b50620004eb565b8260028101928215620000ea579160200282015b82811115620000e9578251829081620000d8919062000404565b5091602001919060010190620000be565b5b509050620000f99190620000fd565b5090565b5b8082111562000121576000818162000117919062000125565b50600101620000fe565b5090565b5080546200013390620001f3565b6000825580601f1062000147575062000168565b601f0160209004906000526020600020908101906200016791906200016b565b5b50565b5b80821115620001865760008160009055506001016200016c565b5090565b600081519050919050565b7f4e487b7100000000000000000000000000000000000000000000000000000000600052604160045260246000fd5b7f4e487b7100000000000000000000000000000000000000000000000000000000600052602260045260246000fd5b600060028204905060018216806200020c57607f821691505b602082108103620002225762000221620001c4565b5b50919050565b60008190508160005260206000209050919050565b60006020601f8301049050919050565b600082821b905092915050565b6000600883026200028c7fffffffffffffffffffffffffffffffffffffffffffffffffffffffffffffffff826200024d565b6200029886836200024d565b95508019841693508086168417925050509392505050565b6000819050919050565b6000819050919050565b6000620002e5620002df620002d984620002b0565b620002ba565b620002b0565b9050919050565b6000819050919050565b6200030183620002c4565b620003196200031082620002ec565b8484546200025a565b825550505050565b600090565b6200033062000321565b6200033d818484620002f6565b505050565b5b8181101562000365576200035960008262000326565b60018101905062000343565b5050565b601f821115620003b4576200037e8162000228565b62000389846200023d565b8101602085101562000399578190505b620003b1620003a8856200023d565b83018262000342565b50505b505050565b600082821c905092915050565b6000620003d960001984600802620003b9565b1980831691505092915050565b6000620003f48383620003c6565b9150826002028217905092915050565b6200040f826200018a565b67ffffffffffffffff8111156200042b576200042a62000195565b5b620004378254620001f3565b6200044482828562000369565b600060209050601f8311600181146200047c576000841562000467578287015190505b620004738582620003e6565b865550620004e3565b601f1984166200048c8662000228565b60005b82811015620004b6578489015182556001820191506020850194506020810190506200048f565b86831015620004d65784890151620004d2601f891682620003c6565b8355505b6001600288020188555050505b505050505050565b6107e480620004fb6000396000f3fe608060405234801561001057600080fd5b50600436106100365760003560e01c8063a4603a1c1461003b578063bdc2dd5f14610057575b600080fd5b61005560048036038101906100509190610369565b610076565b005b61005f6100c1565b60405161006d929190610460565b60405180910390f35b816000806002811061008b5761008a610497565b5b01908161009891906106dc565b508060006001600281106100af576100ae610497565b5b0190816100bc91906106dc565b505050565b606080600080600281106100d8576100d7610497565b5b0160006001600281106100ee576100ed610497565b5b018180546100fb906104f5565b80601f0160208091040260200160405190810160405280929190818152602001828054610127906104f5565b80156101745780601f1061014957610100808354040283529160200191610174565b820191906000526020600020905b81548152906001019060200180831161015757829003601f168201915b50505050509150808054610187906104f5565b80601f01602080910402602001604051908101604052809291908181526020018280546101b3906104f5565b80156102005780601f106101d557610100808354040283529160200191610200565b820191906000526020600020905b8154815290600101906020018083116101e357829003601f168201915b50505050509050915091509091565b6000604051905090565b600080fd5b600080fd5b600080fd5b600080fd5b6000601f19601f8301169050919050565b7f4e487b7100000000000000000000000000000000000000000000000000000000600052604160045260246000fd5b6102768261022d565b810181811067ffffffffffffffff821117156102955761029461023e565b5b80604052505050565b60006102a861020f565b90506102b4828261026d565b919050565b600067ffffffffffffffff8211156102d4576102d361023e565b5b6102dd8261022d565b9050602081019050919050565b82818337600083830152505050565b600061030c610307846102b9565b61029e565b90508281526020810184848401111561032857610327610228565b5b6103338482856102ea565b509392505050565b600082601f8301126103505761034f610223565b5b81356103608482602086016102f9565b91505092915050565b600080604083850312156103805761037f610219565b5b600083013567ffffffffffffffff81111561039e5761039d61021e565b5b6103aa8582860161033b565b925050602083013567ffffffffffffffff8111156103cb576103ca61021e565b5b6103d78582860161033b565b9150509250929050565b600081519050919050565b600082825260208201905092915050565b60005b8381101561041b578082015181840152602081019050610400565b60008484015250505050565b6000610432826103e1565b61043c81856103ec565b935061044c8185602086016103fd565b6104558161022d565b840191505092915050565b6000604082019050818103600083015261047a8185610427565b9050818103602083015261048e8184610427565b90509392505050565b7f4e487b7100000000000000000000000000000000000000000000000000000000600052603260045260246000fd5b7f4e487b7100000000000000000000000000000000000000000000000000000000600052602260045260246000fd5b6000600282049050600182168061050d57607f821691505b6020821081036105205761051f6104c6565b5b50919050565b60008190508160005260206000209050919050565b60006020601f8301049050919050565b600082821b905092915050565b6000600883026105887fffffffffffffffffffffffffffffffffffffffffffffffffffffffffffffffff8261054b565b610592868361054b565b95508019841693508086168417925050509392505050565b6000819050919050565b6000819050919050565b60006105d96105d46105cf846105aa565b6105b4565b6105aa565b9050919050565b6000819050919050565b6105f3836105be565b6106076105ff826105e0565b848454610558565b825550505050565b600090565b61061c61060f565b6106278184846105ea565b505050565b5b8181101561064b57610640600082610614565b60018101905061062d565b5050565b601f8211156106905761066181610526565b61066a8461053b565b81016020851015610679578190505b61068d6106858561053b565b83018261062c565b50505b505050565b600082821c905092915050565b60006106b360001984600802610695565b1980831691505092915050565b60006106cc83836106a2565b9150826002028217905092915050565b6106e5826103e1565b67ffffffffffffffff8111156106fe576106fd61023e565b5b61070882546104f5565b61071382828561064f565b600060209050601f8311600181146107465760008415610734578287015190505b61073e85826106c0565b8655506107a6565b601f19841661075486610526565b60005b8281101561077c57848901518255600182019150602085019450602081019050610757565b868310156107995784890151610795601f8916826106a2565b8355505b6001600288020188555050505b50505050505056fea26469706673582212207db1bdbf1bd7ba3e93b36288e21504b77fde037f7a3d188b97a98b884f2e8a6c64736f6c63430008110033",
  "immutableReferences": {},
  "source": "//SPDX-License-Identifier: MIT\n\n// Solidity files have to start with this pragma.\n// It will be used by the Solidity compiler to validate its version.\npragma solidity ^0.8.9;\n\n// This is the main building block for smart contracts.\ncontract Employe {\n    string[2] location = [\"0.00\", \"0.00\"];\n    //send the location cordinates\n    function sendlocation(string memory _latitude, string memory _longitude)\n        public\n    {\n        location[0] = _latitude;\n        location[1] = _longitude;\n    }\n    //This function read the location cordinates \n    function readlocation()\n        public\n        view\n        returns (string memory, string memory)\n    {\n        return (location[0], location[1]);\n    }\n}",
  "sourcePath": "/home/sucess/10-academy/week-10/location_smart_contract/contracts/refund_location.sol",
  "compiler": {
    "name": "solc",
    "version": "0.8.17+commit.8df45f5f.Emscripten.clang"
  },
  "schemaVersion": "3.4.10",
  "updatedAt": "2022-10-29T15:15:30.616Z",
  "devdoc": {
    "kind": "dev",
    "methods": {},
    "version": 1
  },
  "userdoc": {
    "kind": "user",
    "methods": {},
    "version": 1
  }
}